{
  "contractName": "OwnablePausable",
  "abi": [
    {
      "constant": true,
      "inputs": [],
      "name": "isRunning",
      "outputs": [
        {
          "name": "",
          "type": "bool"
        }
      ],
      "payable": false,
      "stateMutability": "view",
      "type": "function"
    },
    {
      "constant": true,
      "inputs": [],
      "name": "owner",
      "outputs": [
        {
          "name": "",
          "type": "address"
        }
      ],
      "payable": false,
      "stateMutability": "view",
      "type": "function"
    },
    {
      "constant": true,
      "inputs": [],
      "name": "isOwner",
      "outputs": [
        {
          "name": "",
          "type": "bool"
        }
      ],
      "payable": false,
      "stateMutability": "view",
      "type": "function"
    },
    {
      "constant": false,
      "inputs": [
        {
          "name": "runningState",
          "type": "bool"
        }
      ],
      "name": "setRunning",
      "outputs": [],
      "payable": false,
      "stateMutability": "nonpayable",
      "type": "function"
    },
    {
      "anonymous": false,
      "inputs": [
        {
          "indexed": true,
          "name": "whoChanged",
          "type": "address"
        },
        {
          "indexed": false,
          "name": "isRunning",
          "type": "bool"
        }
      ],
      "name": "RunningStatusChanged",
      "type": "event"
    },
    {
      "anonymous": false,
      "inputs": [
        {
          "indexed": true,
          "name": "previousOwner",
          "type": "address"
        },
        {
          "indexed": true,
          "name": "newOwner",
          "type": "address"
        }
      ],
      "name": "OwnershipTransferred",
      "type": "event"
    },
    {
      "constant": false,
      "inputs": [],
      "name": "renounceOwnership",
      "outputs": [],
      "payable": false,
      "stateMutability": "nonpayable",
      "type": "function"
    },
    {
      "constant": false,
      "inputs": [
        {
          "name": "newOwner",
          "type": "address"
        }
      ],
      "name": "transferOwnership",
      "outputs": [],
      "payable": false,
      "stateMutability": "nonpayable",
      "type": "function"
    }
  ],
  "bytecode": "0x6080604052336000806101000a81548173ffffffffffffffffffffffffffffffffffffffff021916908373ffffffffffffffffffffffffffffffffffffffff1602179055506000809054906101000a900473ffffffffffffffffffffffffffffffffffffffff1673ffffffffffffffffffffffffffffffffffffffff16600073ffffffffffffffffffffffffffffffffffffffff167f8be0079c531659141344cd1fd0a4f28419497f9722a3daafe3b4186f6b6457e060405160405180910390a36001600060146101000a81548160ff0219169083151502179055503373ffffffffffffffffffffffffffffffffffffffff167fad62b9be5571a3bda9471ff06415c6db42e25fb584e9cd5bd215847e31dc797c6001604051808215151515815260200191505060405180910390a26107ad8061013d6000396000f3fe608060405234801561001057600080fd5b506004361061007f576000357c0100000000000000000000000000000000000000000000000000000000900480632014e5d114610084578063715018a6146100a65780638da5cb5b146100b05780638f32d59b146100fa578063dfd200c51461011c578063f2fde38b1461014c575b600080fd5b61008c610190565b604051808215151515815260200191505060405180910390f35b6100ae6101a6565b005b6100b8610272565b604051808273ffffffffffffffffffffffffffffffffffffffff1673ffffffffffffffffffffffffffffffffffffffff16815260200191505060405180910390f35b61010261029b565b604051808215151515815260200191505060405180910390f35b61014a6004803603602081101561013257600080fd5b810190808035151590602001909291905050506102f2565b005b61018e6004803603602081101561016257600080fd5b81019080803573ffffffffffffffffffffffffffffffffffffffff1690602001909291905050506103be565b005b60008060149054906101000a900460ff16905090565b6101ae61029b565b610203576040517f08c379a000000000000000000000000000000000000000000000000000000000815260040180806020018281038252603f81526020018061070a603f913960400191505060405180910390fd5b600060149054906101000a900460ff16610268576040517f08c379a00000000000000000000000000000000000000000000000000000000081526004018080602001828103825260398152602001806107496039913960400191505060405180910390fd5b61027061048c565b565b60008060009054906101000a900473ffffffffffffffffffffffffffffffffffffffff16905090565b60008060009054906101000a900473ffffffffffffffffffffffffffffffffffffffff1673ffffffffffffffffffffffffffffffffffffffff163373ffffffffffffffffffffffffffffffffffffffff1614905090565b6102fa61029b565b61034f576040517f08c379a000000000000000000000000000000000000000000000000000000000815260040180806020018281038252603f81526020018061070a603f913960400191505060405180910390fd5b3373ffffffffffffffffffffffffffffffffffffffff167fad62b9be5571a3bda9471ff06415c6db42e25fb584e9cd5bd215847e31dc797c82604051808215151515815260200191505060405180910390a280600060146101000a81548160ff02191690831515021790555050565b6103c661029b565b61041b576040517f08c379a000000000000000000000000000000000000000000000000000000000815260040180806020018281038252603f81526020018061070a603f913960400191505060405180910390fd5b600060149054906101000a900460ff16610480576040517f08c379a00000000000000000000000000000000000000000000000000000000081526004018080602001828103825260398152602001806107496039913960400191505060405180910390fd5b610489816105a8565b50565b61049461029b565b6104e9576040517f08c379a000000000000000000000000000000000000000000000000000000000815260040180806020018281038252603f81526020018061070a603f913960400191505060405180910390fd5b600073ffffffffffffffffffffffffffffffffffffffff166000809054906101000a900473ffffffffffffffffffffffffffffffffffffffff1673ffffffffffffffffffffffffffffffffffffffff167f8be0079c531659141344cd1fd0a4f28419497f9722a3daafe3b4186f6b6457e060405160405180910390a360008060006101000a81548173ffffffffffffffffffffffffffffffffffffffff021916908373ffffffffffffffffffffffffffffffffffffffff160217905550565b6105b061029b565b610605576040517f08c379a000000000000000000000000000000000000000000000000000000000815260040180806020018281038252603f81526020018061070a603f913960400191505060405180910390fd5b61060e81610611565b50565b600073ffffffffffffffffffffffffffffffffffffffff168173ffffffffffffffffffffffffffffffffffffffff16141561064b57600080fd5b8073ffffffffffffffffffffffffffffffffffffffff166000809054906101000a900473ffffffffffffffffffffffffffffffffffffffff1673ffffffffffffffffffffffffffffffffffffffff167f8be0079c531659141344cd1fd0a4f28419497f9722a3daafe3b4186f6b6457e060405160405180910390a3806000806101000a81548173ffffffffffffffffffffffffffffffffffffffff021916908373ffffffffffffffffffffffffffffffffffffffff1602179055505056fe4f776e61626c652c2033333a204f6e6c792074686520636f6e7472616374206f776e65722063616e20706572666f726d20746869732061637469766974792e5061757361626c652c2032363a2043616e206f6e6c79206578656375746520696620636f6e7472616374206973206e6f74207061757365642ea165627a7a723058200044018f563b910c6bd2beb1c2eff0384a5a50121082457c3ce94a3c5f0624ef0029",
  "source": "pragma solidity 0.5.7;\n\nimport \"./Ownable.sol\";\nimport \"./Pausable.sol\";\n\ncontract OwnablePausable is Ownable, Pausable{\n\n    function renounceOwnership() public onlyOwner onlyIfRunning {\n        super.renounceOwnership();\n    }\n\n    function transferOwnership(address newOwner) public onlyOwner onlyIfRunning {\n        super.transferOwnership(newOwner);\n    }\n\n}",
  "sourcePath": "/home/andrew/b9labs/dapps/splitter/contracts/OwnablePausable.sol",
  "compiler": {
    "name": "solc",
    "version": "0.5.7+commit.6da8b019.Emscripten.clang"
  },
  "schemaVersion": "3.0.3",
  "updatedAt": "2019-04-26T03:58:52.933Z",
  "devdoc": {
    "methods": {
      "isOwner()": {
        "return": "true if `msg.sender` is the owner of the contract."
      },
      "owner()": {
        "return": "the address of the owner."
      }
    }
  },
  "userdoc": {
    "methods": {}
  }
}