{
  "contractName": "Splitter",
  "abi": [
    {
      "constant": true,
      "inputs": [
        {
          "name": "",
          "type": "address"
        }
      ],
      "name": "balances",
      "outputs": [
        {
          "name": "",
          "type": "uint256"
        }
      ],
      "payable": false,
      "stateMutability": "view",
      "type": "function",
      "signature": "0x27e235e3"
    },
    {
      "inputs": [],
      "payable": false,
      "stateMutability": "nonpayable",
      "type": "constructor",
      "signature": "constructor"
    },
    {
      "anonymous": false,
      "inputs": [
        {
          "indexed": true,
          "name": "whoIsOwner",
          "type": "address"
        }
      ],
      "name": "LogSetOwner",
      "type": "event",
      "signature": "0xce241d7ca1f669fee44b6fc00b8eba2df3bb514eed0f6f668f8f89096e81ed94"
    },
    {
      "anonymous": false,
      "inputs": [
        {
          "indexed": true,
          "name": "whoDidSplit",
          "type": "address"
        },
        {
          "indexed": false,
          "name": "amountToSplit",
          "type": "uint256"
        },
        {
          "indexed": true,
          "name": "splitToAccount1",
          "type": "address"
        },
        {
          "indexed": true,
          "name": "splitToAccount2",
          "type": "address"
        }
      ],
      "name": "LogSplit",
      "type": "event",
      "signature": "0x294561be4d5d042bd5fa2e7c80dd42bb018d7d15c06d95b542a150419ff80560"
    },
    {
      "anonymous": false,
      "inputs": [
        {
          "indexed": true,
          "name": "whoWithdrew",
          "type": "address"
        },
        {
          "indexed": false,
          "name": "amountWithdrawn",
          "type": "uint256"
        }
      ],
      "name": "LogWithdrawal",
      "type": "event",
      "signature": "0xb4214c8c54fc7442f36d3682f59aebaf09358a4431835b30efb29d52cf9e1e91"
    },
    {
      "constant": false,
      "inputs": [
        {
          "name": "splitToAccount1",
          "type": "address"
        },
        {
          "name": "splitToAccount2",
          "type": "address"
        }
      ],
      "name": "splitBetween",
      "outputs": [],
      "payable": true,
      "stateMutability": "payable",
      "type": "function",
      "signature": "0xf23ca928"
    },
    {
      "constant": false,
      "inputs": [],
      "name": "withdraw",
      "outputs": [],
      "payable": false,
      "stateMutability": "nonpayable",
      "type": "function",
      "signature": "0x3ccfd60b"
    }
  ],
  "bytecode": "0x608060405234801561001057600080fd5b5033600160006101000a81548173ffffffffffffffffffffffffffffffffffffffff021916908373ffffffffffffffffffffffffffffffffffffffff160217905550600160009054906101000a900473ffffffffffffffffffffffffffffffffffffffff1673ffffffffffffffffffffffffffffffffffffffff167fce241d7ca1f669fee44b6fc00b8eba2df3bb514eed0f6f668f8f89096e81ed9460405160405180910390a2610646806100c66000396000f3fe608060405260043610610051576000357c01000000000000000000000000000000000000000000000000000000009004806327e235e3146100565780633ccfd60b146100bb578063f23ca928146100d2575b600080fd5b34801561006257600080fd5b506100a56004803603602081101561007957600080fd5b81019080803573ffffffffffffffffffffffffffffffffffffffff169060200190929190505050610136565b6040518082815260200191505060405180910390f35b3480156100c757600080fd5b506100d061014e565b005b610134600480360360408110156100e857600080fd5b81019080803573ffffffffffffffffffffffffffffffffffffffff169060200190929190803573ffffffffffffffffffffffffffffffffffffffff1690602001909291905050506102e3565b005b60006020528060005260406000206000915090505481565b60008060003373ffffffffffffffffffffffffffffffffffffffff1673ffffffffffffffffffffffffffffffffffffffff16815260200190815260200160002054905060008111610207576040517f08c379a000000000000000000000000000000000000000000000000000000000815260040180806020018281038252601e8152602001807f4e6f7468696e6720617661696c61626c6520746f2077697468647261772e000081525060200191505060405180910390fd5b60008060003373ffffffffffffffffffffffffffffffffffffffff1673ffffffffffffffffffffffffffffffffffffffff168152602001908152602001600020819055503373ffffffffffffffffffffffffffffffffffffffff166108fc829081150290604051600060405180830381858888f19350505050158015610291573d6000803e3d6000fd5b503373ffffffffffffffffffffffffffffffffffffffff167fb4214c8c54fc7442f36d3682f59aebaf09358a4431835b30efb29d52cf9e1e91826040518082815260200191505060405180910390a250565b600073ffffffffffffffffffffffffffffffffffffffff168273ffffffffffffffffffffffffffffffffffffffff16141561031d57600080fd5b600073ffffffffffffffffffffffffffffffffffffffff168173ffffffffffffffffffffffffffffffffffffffff16141561035757600080fd5b8073ffffffffffffffffffffffffffffffffffffffff168273ffffffffffffffffffffffffffffffffffffffff16141561039057600080fd5b6103eb6002348161039d57fe5b046000808573ffffffffffffffffffffffffffffffffffffffff1673ffffffffffffffffffffffffffffffffffffffff168152602001908152602001600020546105fb90919063ffffffff16565b6000808473ffffffffffffffffffffffffffffffffffffffff1673ffffffffffffffffffffffffffffffffffffffff168152602001908152602001600020819055506104886002348161043a57fe5b046000808473ffffffffffffffffffffffffffffffffffffffff1673ffffffffffffffffffffffffffffffffffffffff168152602001908152602001600020546105fb90919063ffffffff16565b6000808373ffffffffffffffffffffffffffffffffffffffff1673ffffffffffffffffffffffffffffffffffffffff168152602001908152602001600020819055506000600234816104d657fe5b06111561057b57610538600234816104ea57fe5b066000803373ffffffffffffffffffffffffffffffffffffffff1673ffffffffffffffffffffffffffffffffffffffff168152602001908152602001600020546105fb90919063ffffffff16565b6000803373ffffffffffffffffffffffffffffffffffffffff1673ffffffffffffffffffffffffffffffffffffffff168152602001908152602001600020819055505b8073ffffffffffffffffffffffffffffffffffffffff168273ffffffffffffffffffffffffffffffffffffffff163373ffffffffffffffffffffffffffffffffffffffff167f294561be4d5d042bd5fa2e7c80dd42bb018d7d15c06d95b542a150419ff80560346040518082815260200191505060405180910390a45050565b60008082840190508381101561061057600080fd5b809150509291505056fea165627a7a7230582013703f014c21bdade802cf6e83cdd6e74d189f27f1dfba27e4c43e676c5795710029",
  "source": "pragma solidity 0.5.7;\n\nimport \"./SafeMath.sol\";\n\ncontract Splitter{\n\n    using SafeMath for uint;\n\n    mapping (address => uint) public balances;\n    \n    address payable owner;\n    \n    event LogSetOwner(address indexed whoIsOwner);\n    event LogSplit(address indexed whoDidSplit, uint amountToSplit, address indexed splitToAccount1, address indexed splitToAccount2);\n    event LogWithdrawal(address indexed whoWithdrew, uint amountWithdrawn);\n\n    constructor() public {\n\n        // save address of contract deployer for later, just in case\n        owner = msg.sender;\n\n        emit LogSetOwner(owner);\n    }\n    \n    function splitBetween(address splitToAccount1, address splitToAccount2) public payable {\n\n        // Neither provided account should be unset (or 0x).\n        require( splitToAccount1 != address(0) );\n        require( splitToAccount2 != address(0) );\n\n        // Not strictly necessary, but provided accounts should probably be different addresses.\n        require( splitToAccount1 != splitToAccount2 );\n        \n        // add half of the sent amount to each provided account\n        balances[splitToAccount1] = balances[splitToAccount1].add(msg.value / 2);\n        balances[splitToAccount2] = balances[splitToAccount2].add(msg.value / 2);\n\n        // if there is a remainder (an odd wei), add it to the account of the sender.\n        if ( msg.value % 2 > 0 ){\n            balances[msg.sender] = balances[msg.sender].add(msg.value % 2);\n        }\n        emit LogSplit(msg.sender, msg.value, splitToAccount1, splitToAccount2);\n    }\n\n    function withdraw() public{\n\n        uint balance = balances[msg.sender];\n\n        require( balance > 0, \"Nothing available to withdraw.\" );\n\n        // optimistically mark this as transferred, if it fails this will be reverted anyway\n        balances[msg.sender] = 0;\n        msg.sender.transfer(balance);\n\n        emit LogWithdrawal(msg.sender, balance);\n    }\n}",
  "sourcePath": "/home/andrew/b9labs/dapps/splitter/contracts/Splitter.sol",
  "compiler": {
    "name": "solc",
    "version": "0.5.7+commit.6da8b019.Emscripten.clang"
  },
  "schemaVersion": "3.0.3",
  "updatedAt": "2019-04-23T21:17:37.847Z",
  "devdoc": {
    "methods": {}
  },
  "userdoc": {
    "methods": {}
  }
}