{
  "contractName": "Splitter",
  "abi": [
    {
      "inputs": [
        {
          "name": "setAlice",
          "type": "address"
        },
        {
          "name": "setBob",
          "type": "address"
        },
        {
          "name": "setCarol",
          "type": "address"
        }
      ],
      "payable": false,
      "stateMutability": "nonpayable",
      "type": "constructor",
      "signature": "constructor"
    },
    {
      "anonymous": false,
      "inputs": [
        {
          "indexed": true,
          "name": "whoCanSplit",
          "type": "address"
        },
        {
          "indexed": true,
          "name": "whoGetsOneHalf",
          "type": "address"
        },
        {
          "indexed": true,
          "name": "whoGetsOtherHalf",
          "type": "address"
        }
      ],
      "name": "LogSetAddresses",
      "type": "event",
      "signature": "0xde443c2503fcf433a2e2730d69ab14008761dc0739d3ead421edb86c8d4977cd"
    },
    {
      "anonymous": false,
      "inputs": [
        {
          "indexed": false,
          "name": "amountToSplit",
          "type": "uint256"
        },
        {
          "indexed": false,
          "name": "splitPortion",
          "type": "uint256"
        }
      ],
      "name": "LogSplit",
      "type": "event",
      "signature": "0xb40c4d48c9237362e9fed37b4ef246648aaf142fbe4df4d0524c1529b548ef7d"
    },
    {
      "anonymous": false,
      "inputs": [
        {
          "indexed": true,
          "name": "whoWithdrew",
          "type": "address"
        },
        {
          "indexed": false,
          "name": "amountWithdrawn",
          "type": "uint256"
        }
      ],
      "name": "LogWithdrawal",
      "type": "event",
      "signature": "0xb4214c8c54fc7442f36d3682f59aebaf09358a4431835b30efb29d52cf9e1e91"
    },
    {
      "constant": false,
      "inputs": [],
      "name": "splitBetween",
      "outputs": [],
      "payable": true,
      "stateMutability": "payable",
      "type": "function",
      "signature": "0x9f9329df"
    },
    {
      "constant": false,
      "inputs": [],
      "name": "withdraw",
      "outputs": [],
      "payable": false,
      "stateMutability": "nonpayable",
      "type": "function",
      "signature": "0x3ccfd60b"
    }
  ],
  "bytecode": "0x6080604052601260005534801561001557600080fd5b5060405160608061089f8339810180604052606081101561003557600080fd5b81019080805190602001909291908051906020019092919080519060200190929190505050600073ffffffffffffffffffffffffffffffffffffffff168373ffffffffffffffffffffffffffffffffffffffff16141561009457600080fd5b600073ffffffffffffffffffffffffffffffffffffffff168273ffffffffffffffffffffffffffffffffffffffff1614156100ce57600080fd5b600073ffffffffffffffffffffffffffffffffffffffff168173ffffffffffffffffffffffffffffffffffffffff16141561010857600080fd5b8173ffffffffffffffffffffffffffffffffffffffff168373ffffffffffffffffffffffffffffffffffffffff16141561014157600080fd5b8073ffffffffffffffffffffffffffffffffffffffff168373ffffffffffffffffffffffffffffffffffffffff16141561017a57600080fd5b8073ffffffffffffffffffffffffffffffffffffffff168273ffffffffffffffffffffffffffffffffffffffff1614156101b357600080fd5b82600360006101000a81548173ffffffffffffffffffffffffffffffffffffffff021916908373ffffffffffffffffffffffffffffffffffffffff16021790555081600460006101000a81548173ffffffffffffffffffffffffffffffffffffffff021916908373ffffffffffffffffffffffffffffffffffffffff16021790555080600560006101000a81548173ffffffffffffffffffffffffffffffffffffffff021916908373ffffffffffffffffffffffffffffffffffffffff160217905550600560009054906101000a900473ffffffffffffffffffffffffffffffffffffffff1673ffffffffffffffffffffffffffffffffffffffff16600460009054906101000a900473ffffffffffffffffffffffffffffffffffffffff1673ffffffffffffffffffffffffffffffffffffffff16600360009054906101000a900473ffffffffffffffffffffffffffffffffffffffff1673ffffffffffffffffffffffffffffffffffffffff167fde443c2503fcf433a2e2730d69ab14008761dc0739d3ead421edb86c8d4977cd60405160405180910390a45050506105408061035f6000396000f3fe608060405260043610610046576000357c0100000000000000000000000000000000000000000000000000000000900480633ccfd60b1461004b5780639f9329df14610062575b600080fd5b34801561005757600080fd5b5061006061006c565b005b61006a610369565b005b600460009054906101000a900473ffffffffffffffffffffffffffffffffffffffff1673ffffffffffffffffffffffffffffffffffffffff163373ffffffffffffffffffffffffffffffffffffffff1614156101f15760006100de600054600a0a60015461047590919063ffffffff16565b905061010c6100fb600054600a0a8361049b90919063ffffffff16565b6001546104d590919063ffffffff16565b600181905550600460009054906101000a900473ffffffffffffffffffffffffffffffffffffffff1673ffffffffffffffffffffffffffffffffffffffff166108fc829081150290604051600060405180830381858888f1935050505015801561017a573d6000803e3d6000fd5b50600460009054906101000a900473ffffffffffffffffffffffffffffffffffffffff1673ffffffffffffffffffffffffffffffffffffffff167fb4214c8c54fc7442f36d3682f59aebaf09358a4431835b30efb29d52cf9e1e91826040518082815260200191505060405180910390a250610367565b600560009054906101000a900473ffffffffffffffffffffffffffffffffffffffff1673ffffffffffffffffffffffffffffffffffffffff163373ffffffffffffffffffffffffffffffffffffffff161415610361576000600254905061027a610269600054600a0a8361049b90919063ffffffff16565b6002546104d590919063ffffffff16565b600281905550600560009054906101000a900473ffffffffffffffffffffffffffffffffffffffff1673ffffffffffffffffffffffffffffffffffffffff166108fc6002549081150290604051600060405180830381858888f193505050501580156102ea573d6000803e3d6000fd5b50600560009054906101000a900473ffffffffffffffffffffffffffffffffffffffff1673ffffffffffffffffffffffffffffffffffffffff167fb4214c8c54fc7442f36d3682f59aebaf09358a4431835b30efb29d52cf9e1e91826040518082815260200191505060405180910390a250610366565b600080fd5b5b565b600360009054906101000a900473ffffffffffffffffffffffffffffffffffffffff1673ffffffffffffffffffffffffffffffffffffffff163373ffffffffffffffffffffffffffffffffffffffff16146103c357600080fd5b60006103dd600054600a0a3461049b90919063ffffffff16565b90506103fe600282816103ec57fe5b046001546104f590919063ffffffff16565b6001819055506104236002828161041157fe5b046002546104f590919063ffffffff16565b6002819055507fb40c4d48c9237362e9fed37b4ef246648aaf142fbe4df4d0524c1529b548ef7d346002838161045557fe5b04604051808381526020018281526020019250505060405180910390a150565b600080821161048357600080fd5b600082848161048e57fe5b0490508091505092915050565b6000808314156104ae57600090506104cf565b60008284029050828482816104bf57fe5b04146104ca57600080fd5b809150505b92915050565b6000828211156104e457600080fd5b600082840390508091505092915050565b60008082840190508381101561050a57600080fd5b809150509291505056fea165627a7a72305820c4113de8ecf55319025c7f82fc9032d806af35b1b4897bde2f722149a625dc0e0029",
  "source": "pragma solidity 0.5.7;\n\nimport \"./SafeMath.sol\";\n\ncontract Splitter{\n\n    using SafeMath for uint;\n\n    // balances will be stored as 45 digit values\n    // up to 27 digits for ether and 18 digits for fixed point decimals\n    uint numDecimals = 18;\n\n    uint bobBalance;\n    uint carolBalance;\n    \n    address payable alice;\n    address payable bob;\n    address payable carol;\n    \n    event LogSetAddresses(address indexed whoCanSplit, address indexed whoGetsOneHalf, address indexed whoGetsOtherHalf);\n    event LogSplit(uint amountToSplit, uint splitPortion);\n    event LogWithdrawal(address indexed whoWithdrew, uint amountWithdrawn);\n\n    constructor(address payable setAlice, address payable setBob, address payable setCarol) public {\n        // Niether Alice, Bob, nor Carol should be unset (or 0x).\n        require(setAlice != address(0));\n        require(setBob != address(0));\n        require(setCarol != address(0));\n\n        // Not strictly necessary, but Alice, Bob, and Carol should probably be different entities.\n        require(setAlice != setBob);\n        require(setAlice != setCarol);\n        require(setBob != setCarol);\n        \n        // save the addresses for later\n        alice = setAlice;\n        bob = setBob;\n        carol = setCarol;\n\n        emit LogSetAddresses(alice, bob, carol);\n    }\n    \n    function splitBetween() public payable {\n        // only Alice can split\n        require(msg.sender == alice);\n        \n        uint amountToSplit = msg.value.mul(10 ** numDecimals);\n        \n        bobBalance = bobBalance.add(amountToSplit / 2);\n        carolBalance = carolBalance.add(amountToSplit / 2);\n        \n        emit LogSplit(msg.value, amountToSplit / 2);\n    }\n\n    function withdraw() public{\n        if (msg.sender == bob){\n            uint withdrawable = bobBalance.div(10 ** numDecimals);\n            \n            // optimistically mark this as transferred, if it fails this will be reverted anyway\n            bobBalance = bobBalance.sub(withdrawable.mul(10 ** numDecimals));\n            bob.transfer(withdrawable);\n\n            emit LogWithdrawal(bob, withdrawable);\n\n        } else if (msg.sender == carol){\n            uint withdrawable = carolBalance;\n\n            // optimistically mark this as transferred, if it fails this will be reverted anyway\n            carolBalance = carolBalance.sub(withdrawable.mul(10 ** numDecimals));\n            carol.transfer(carolBalance);\n\n            emit LogWithdrawal(carol, withdrawable);\n            \n        } else {\n            revert();\n        }\n    }\n}",
  "sourcePath": "/home/andrew/b9labs/dapps/splitter/contracts/Splitter.sol",
  "compiler": {
    "name": "solc",
    "version": "0.5.7+commit.6da8b019.Emscripten.clang"
  },
  "schemaVersion": "3.0.3",
  "updatedAt": "2019-04-20T00:38:11.102Z",
  "devdoc": {
    "methods": {}
  },
  "userdoc": {
    "methods": {}
  }
}