{
  "contractName": "Splitter",
  "abi": [
    {
      "constant": true,
      "inputs": [],
      "name": "isRunning",
      "outputs": [
        {
          "name": "",
          "type": "bool"
        }
      ],
      "payable": false,
      "stateMutability": "view",
      "type": "function",
      "signature": "0x2014e5d1"
    },
    {
      "constant": true,
      "inputs": [
        {
          "name": "",
          "type": "address"
        }
      ],
      "name": "balances",
      "outputs": [
        {
          "name": "",
          "type": "uint256"
        }
      ],
      "payable": false,
      "stateMutability": "view",
      "type": "function",
      "signature": "0x27e235e3"
    },
    {
      "constant": false,
      "inputs": [],
      "name": "renounceOwnership",
      "outputs": [],
      "payable": false,
      "stateMutability": "nonpayable",
      "type": "function",
      "signature": "0x715018a6"
    },
    {
      "constant": true,
      "inputs": [],
      "name": "owner",
      "outputs": [
        {
          "name": "",
          "type": "address"
        }
      ],
      "payable": false,
      "stateMutability": "view",
      "type": "function",
      "signature": "0x8da5cb5b"
    },
    {
      "constant": true,
      "inputs": [],
      "name": "isOwner",
      "outputs": [
        {
          "name": "",
          "type": "bool"
        }
      ],
      "payable": false,
      "stateMutability": "view",
      "type": "function",
      "signature": "0x8f32d59b"
    },
    {
      "constant": false,
      "inputs": [
        {
          "name": "runningState",
          "type": "bool"
        }
      ],
      "name": "setRunning",
      "outputs": [],
      "payable": false,
      "stateMutability": "nonpayable",
      "type": "function",
      "signature": "0xdfd200c5"
    },
    {
      "constant": false,
      "inputs": [
        {
          "name": "newOwner",
          "type": "address"
        }
      ],
      "name": "transferOwnership",
      "outputs": [],
      "payable": false,
      "stateMutability": "nonpayable",
      "type": "function",
      "signature": "0xf2fde38b"
    },
    {
      "anonymous": false,
      "inputs": [
        {
          "indexed": true,
          "name": "whoDidSplit",
          "type": "address"
        },
        {
          "indexed": false,
          "name": "amountToSplit",
          "type": "uint256"
        },
        {
          "indexed": true,
          "name": "splitToAccount1",
          "type": "address"
        },
        {
          "indexed": true,
          "name": "splitToAccount2",
          "type": "address"
        }
      ],
      "name": "LogSplit",
      "type": "event",
      "signature": "0x294561be4d5d042bd5fa2e7c80dd42bb018d7d15c06d95b542a150419ff80560"
    },
    {
      "anonymous": false,
      "inputs": [
        {
          "indexed": true,
          "name": "whoWithdrew",
          "type": "address"
        },
        {
          "indexed": false,
          "name": "amountWithdrawn",
          "type": "uint256"
        }
      ],
      "name": "LogWithdrawal",
      "type": "event",
      "signature": "0xb4214c8c54fc7442f36d3682f59aebaf09358a4431835b30efb29d52cf9e1e91"
    },
    {
      "anonymous": false,
      "inputs": [
        {
          "indexed": true,
          "name": "whoChanged",
          "type": "address"
        },
        {
          "indexed": false,
          "name": "isRunning",
          "type": "bool"
        }
      ],
      "name": "RunningStatusChanged",
      "type": "event",
      "signature": "0xad62b9be5571a3bda9471ff06415c6db42e25fb584e9cd5bd215847e31dc797c"
    },
    {
      "anonymous": false,
      "inputs": [
        {
          "indexed": true,
          "name": "previousOwner",
          "type": "address"
        },
        {
          "indexed": true,
          "name": "newOwner",
          "type": "address"
        }
      ],
      "name": "OwnershipTransferred",
      "type": "event",
      "signature": "0x8be0079c531659141344cd1fd0a4f28419497f9722a3daafe3b4186f6b6457e0"
    },
    {
      "constant": false,
      "inputs": [
        {
          "name": "splitToAccount1",
          "type": "address"
        },
        {
          "name": "splitToAccount2",
          "type": "address"
        }
      ],
      "name": "splitBetween",
      "outputs": [],
      "payable": true,
      "stateMutability": "payable",
      "type": "function",
      "signature": "0xf23ca928"
    },
    {
      "constant": false,
      "inputs": [],
      "name": "withdraw",
      "outputs": [],
      "payable": false,
      "stateMutability": "nonpayable",
      "type": "function",
      "signature": "0x3ccfd60b"
    }
  ],
  "bytecode": "0x6080604052336000806101000a81548173ffffffffffffffffffffffffffffffffffffffff021916908373ffffffffffffffffffffffffffffffffffffffff1602179055506000809054906101000a900473ffffffffffffffffffffffffffffffffffffffff1673ffffffffffffffffffffffffffffffffffffffff16600073ffffffffffffffffffffffffffffffffffffffff167f8be0079c531659141344cd1fd0a4f28419497f9722a3daafe3b4186f6b6457e060405160405180910390a36001600060146101000a81548160ff0219169083151502179055503373ffffffffffffffffffffffffffffffffffffffff167fad62b9be5571a3bda9471ff06415c6db42e25fb584e9cd5bd215847e31dc797c6001604051808215151515815260200191505060405180910390a26110b68061013d6000396000f3fe6080604052600436106100a3576000357c0100000000000000000000000000000000000000000000000000000000900480638da5cb5b116100765780638da5cb5b1461016a5780638f32d59b146101c1578063dfd200c5146101f0578063f23ca9281461022d578063f2fde38b14610291576100a3565b80632014e5d1146100a857806327e235e3146100d75780633ccfd60b1461013c578063715018a614610153575b600080fd5b3480156100b457600080fd5b506100bd6102e2565b604051808215151515815260200191505060405180910390f35b3480156100e357600080fd5b50610126600480360360208110156100fa57600080fd5b81019080803573ffffffffffffffffffffffffffffffffffffffff1690602001909291905050506102f8565b6040518082815260200191505060405180910390f35b34801561014857600080fd5b50610151610310565b005b34801561015f57600080fd5b506101686104ef565b005b34801561017657600080fd5b5061017f6105bb565b604051808273ffffffffffffffffffffffffffffffffffffffff1673ffffffffffffffffffffffffffffffffffffffff16815260200191505060405180910390f35b3480156101cd57600080fd5b506101d66105e4565b604051808215151515815260200191505060405180910390f35b3480156101fc57600080fd5b5061022b6004803603602081101561021357600080fd5b8101908080351515906020019092919050505061063b565b005b61028f6004803603604081101561024357600080fd5b81019080803573ffffffffffffffffffffffffffffffffffffffff169060200190929190803573ffffffffffffffffffffffffffffffffffffffff169060200190929190505050610707565b005b34801561029d57600080fd5b506102e0600480360360208110156102b457600080fd5b81019080803573ffffffffffffffffffffffffffffffffffffffff169060200190929190505050610baf565b005b60008060149054906101000a900460ff16905090565b60016020528060005260406000206000915090505481565b600060149054906101000a900460ff16610375576040517f08c379a00000000000000000000000000000000000000000000000000000000081526004018080602001828103825260398152602001806110526039913960400191505060405180910390fd5b6000600160003373ffffffffffffffffffffffffffffffffffffffff1673ffffffffffffffffffffffffffffffffffffffff16815260200190815260200160002054905060008111610412576040517f08c379a000000000000000000000000000000000000000000000000000000000815260040180806020018281038252602c815260200180610fe9602c913960400191505060405180910390fd5b6000600160003373ffffffffffffffffffffffffffffffffffffffff1673ffffffffffffffffffffffffffffffffffffffff168152602001908152602001600020819055503373ffffffffffffffffffffffffffffffffffffffff167fb4214c8c54fc7442f36d3682f59aebaf09358a4431835b30efb29d52cf9e1e91826040518082815260200191505060405180910390a23373ffffffffffffffffffffffffffffffffffffffff166108fc829081150290604051600060405180830381858888f193505050501580156104eb573d6000803e3d6000fd5b5050565b6104f76105e4565b61054c576040517f08c379a000000000000000000000000000000000000000000000000000000000815260040180806020018281038252603f815260200180610f7b603f913960400191505060405180910390fd5b600060149054906101000a900460ff166105b1576040517f08c379a00000000000000000000000000000000000000000000000000000000081526004018080602001828103825260398152602001806110526039913960400191505060405180910390fd5b6105b9610c7d565b565b60008060009054906101000a900473ffffffffffffffffffffffffffffffffffffffff16905090565b60008060009054906101000a900473ffffffffffffffffffffffffffffffffffffffff1673ffffffffffffffffffffffffffffffffffffffff163373ffffffffffffffffffffffffffffffffffffffff1614905090565b6106436105e4565b610698576040517f08c379a000000000000000000000000000000000000000000000000000000000815260040180806020018281038252603f815260200180610f7b603f913960400191505060405180910390fd5b3373ffffffffffffffffffffffffffffffffffffffff167fad62b9be5571a3bda9471ff06415c6db42e25fb584e9cd5bd215847e31dc797c82604051808215151515815260200191505060405180910390a280600060146101000a81548160ff02191690831515021790555050565b600060149054906101000a900460ff1661076c576040517f08c379a00000000000000000000000000000000000000000000000000000000081526004018080602001828103825260398152602001806110526039913960400191505060405180910390fd5b600034116107c5576040517f08c379a0000000000000000000000000000000000000000000000000000000008152600401808060200182810382526032815260200180610f1a6032913960400191505060405180910390fd5b600073ffffffffffffffffffffffffffffffffffffffff168273ffffffffffffffffffffffffffffffffffffffff16141561084b576040517f08c379a000000000000000000000000000000000000000000000000000000000815260040180806020018281038252602f815260200180610f4c602f913960400191505060405180910390fd5b600073ffffffffffffffffffffffffffffffffffffffff168173ffffffffffffffffffffffffffffffffffffffff1614156108d1576040517f08c379a000000000000000000000000000000000000000000000000000000000815260040180806020018281038252602f815260200180610fba602f913960400191505060405180910390fd5b8073ffffffffffffffffffffffffffffffffffffffff168273ffffffffffffffffffffffffffffffffffffffff161415610956576040517f08c379a000000000000000000000000000000000000000000000000000000000815260040180806020018281038252603d815260200180611015603d913960400191505060405180910390fd5b60006002348161096257fe5b0490506109b781600160008673ffffffffffffffffffffffffffffffffffffffff1673ffffffffffffffffffffffffffffffffffffffff16815260200190815260200160002054610d9990919063ffffffff16565b600160008573ffffffffffffffffffffffffffffffffffffffff1673ffffffffffffffffffffffffffffffffffffffff16815260200190815260200160002081905550610a4c81600160008573ffffffffffffffffffffffffffffffffffffffff1673ffffffffffffffffffffffffffffffffffffffff16815260200190815260200160002054610d9990919063ffffffff16565b600160008473ffffffffffffffffffffffffffffffffffffffff1673ffffffffffffffffffffffffffffffffffffffff16815260200190815260200160002081905550610aeb60023481610a9c57fe5b06600160003373ffffffffffffffffffffffffffffffffffffffff1673ffffffffffffffffffffffffffffffffffffffff16815260200190815260200160002054610d9990919063ffffffff16565b600160003373ffffffffffffffffffffffffffffffffffffffff1673ffffffffffffffffffffffffffffffffffffffff168152602001908152602001600020819055508173ffffffffffffffffffffffffffffffffffffffff168373ffffffffffffffffffffffffffffffffffffffff163373ffffffffffffffffffffffffffffffffffffffff167f294561be4d5d042bd5fa2e7c80dd42bb018d7d15c06d95b542a150419ff80560346040518082815260200191505060405180910390a4505050565b610bb76105e4565b610c0c576040517f08c379a000000000000000000000000000000000000000000000000000000000815260040180806020018281038252603f815260200180610f7b603f913960400191505060405180910390fd5b600060149054906101000a900460ff16610c71576040517f08c379a00000000000000000000000000000000000000000000000000000000081526004018080602001828103825260398152602001806110526039913960400191505060405180910390fd5b610c7a81610db8565b50565b610c856105e4565b610cda576040517f08c379a000000000000000000000000000000000000000000000000000000000815260040180806020018281038252603f815260200180610f7b603f913960400191505060405180910390fd5b600073ffffffffffffffffffffffffffffffffffffffff166000809054906101000a900473ffffffffffffffffffffffffffffffffffffffff1673ffffffffffffffffffffffffffffffffffffffff167f8be0079c531659141344cd1fd0a4f28419497f9722a3daafe3b4186f6b6457e060405160405180910390a360008060006101000a81548173ffffffffffffffffffffffffffffffffffffffff021916908373ffffffffffffffffffffffffffffffffffffffff160217905550565b600080828401905083811015610dae57600080fd5b8091505092915050565b610dc06105e4565b610e15576040517f08c379a000000000000000000000000000000000000000000000000000000000815260040180806020018281038252603f815260200180610f7b603f913960400191505060405180910390fd5b610e1e81610e21565b50565b600073ffffffffffffffffffffffffffffffffffffffff168173ffffffffffffffffffffffffffffffffffffffff161415610e5b57600080fd5b8073ffffffffffffffffffffffffffffffffffffffff166000809054906101000a900473ffffffffffffffffffffffffffffffffffffffff1673ffffffffffffffffffffffffffffffffffffffff167f8be0079c531659141344cd1fd0a4f28419497f9722a3daafe3b4186f6b6457e060405160405180910390a3806000806101000a81548173ffffffffffffffffffffffffffffffffffffffff021916908373ffffffffffffffffffffffffffffffffffffffff1602179055505056fe53706c69747465722c2031393a20536f6d65206574686572206d7573742062652073656e7420746f2062652073706c69742e53706c69747465722c2032323a2043616e6e6f742073706c697420746f20746865207a65726f20616464726573732e4f776e61626c652c2033333a204f6e6c792074686520636f6e7472616374206f776e65722063616e20706572666f726d20746869732061637469766974792e53706c69747465722c2032333a2043616e6e6f742073706c697420746f20746865207a65726f20616464726573732e53706c69747465722c2034353a204e6f7468696e6720617661696c61626c6520746f2077697468647261772e53706c69747465722c2032363a204163636f756e747320746f2062652073706c6974206265747765656e206d75737420626520646966666572656e742e5061757361626c652c2032363a2043616e206f6e6c79206578656375746520696620636f6e7472616374206973206e6f74207061757365642ea165627a7a7230582045b202a98ee4864572bc7b03405a3a9da6f6702942ea911515b97066fe3555290029",
  "source": "pragma solidity 0.5.7;\n\nimport \"./SafeMath.sol\";\nimport \"./OwnablePausable.sol\";\n\ncontract Splitter is OwnablePausable{\n\n    using SafeMath for uint;\n\n    mapping (address => uint) public balances;\n    \n    event LogSplit(address indexed whoDidSplit, uint amountToSplit, address indexed splitToAccount1, address indexed splitToAccount2);\n    event LogWithdrawal(address indexed whoWithdrew, uint amountWithdrawn);\n    \n    function splitBetween(address splitToAccount1, address splitToAccount2) public payable onlyIfRunning {\n\n        // some value must have been sent to split\n        require ( msg.value > 0, \"Splitter, 19: Some ether must be sent to be split.\" );\n\n        // Neither provided account should be unset (or 0x).\n        require( splitToAccount1 != address(0), \"Splitter, 22: Cannot split to the zero address.\");\n        require( splitToAccount2 != address(0), \"Splitter, 23: Cannot split to the zero address.\");\n\n        // Not strictly necessary, but provided accounts should probably be different addresses.\n        require( splitToAccount1 != splitToAccount2, \"Splitter, 26: Accounts to be split between must be different.\" );\n\n        // amount to be distributed to each of the supplied accounts\n        uint half = msg.value / 2;\n        \n        // add half of the sent amount to each provided account\n        balances[splitToAccount1] = balances[splitToAccount1].add(half);\n        balances[splitToAccount2] = balances[splitToAccount2].add(half);\n\n        // if there is a remainder (an odd wei), add it to the account of the sender.\n        balances[msg.sender] = balances[msg.sender].add(msg.value % 2);\n        \n        emit LogSplit(msg.sender, msg.value, splitToAccount1, splitToAccount2);\n    }\n\n    function withdraw() public onlyIfRunning {\n\n        uint balance = balances[msg.sender];\n\n        require( balance > 0, \"Splitter, 45: Nothing available to withdraw.\" );\n\n        // optimistically mark this as transferred, if it fails this will be reverted anyway\n        balances[msg.sender] = 0;\n        emit LogWithdrawal(msg.sender, balance);\n\n        msg.sender.transfer(balance);\n    }\n}",
  "sourcePath": "/home/andrew/b9labs/dapps/splitter/contracts/Splitter.sol",
  "compiler": {
    "name": "solc",
    "version": "0.5.7+commit.6da8b019.Emscripten.clang"
  },
  "schemaVersion": "3.0.3",
  "updatedAt": "2019-04-26T04:16:55.818Z",
  "devdoc": {
    "methods": {
      "isOwner()": {
        "return": "true if `msg.sender` is the owner of the contract."
      },
      "owner()": {
        "return": "the address of the owner."
      }
    }
  },
  "userdoc": {
    "methods": {}
  }
}