{
  "contractName": "Splitter",
  "abi": [
    {
      "constant": true,
      "inputs": [
        {
          "name": "",
          "type": "address"
        }
      ],
      "name": "balances",
      "outputs": [
        {
          "name": "",
          "type": "uint256"
        }
      ],
      "payable": false,
      "stateMutability": "view",
      "type": "function",
      "signature": "0x27e235e3"
    },
    {
      "constant": false,
      "inputs": [],
      "name": "renounceOwnership",
      "outputs": [],
      "payable": false,
      "stateMutability": "nonpayable",
      "type": "function",
      "signature": "0x715018a6"
    },
    {
      "constant": true,
      "inputs": [],
      "name": "owner",
      "outputs": [
        {
          "name": "",
          "type": "address"
        }
      ],
      "payable": false,
      "stateMutability": "view",
      "type": "function",
      "signature": "0x8da5cb5b"
    },
    {
      "constant": true,
      "inputs": [],
      "name": "isOwner",
      "outputs": [
        {
          "name": "",
          "type": "bool"
        }
      ],
      "payable": false,
      "stateMutability": "view",
      "type": "function",
      "signature": "0x8f32d59b"
    },
    {
      "constant": false,
      "inputs": [
        {
          "name": "newOwner",
          "type": "address"
        }
      ],
      "name": "transferOwnership",
      "outputs": [],
      "payable": false,
      "stateMutability": "nonpayable",
      "type": "function",
      "signature": "0xf2fde38b"
    },
    {
      "anonymous": false,
      "inputs": [
        {
          "indexed": true,
          "name": "whoDidSplit",
          "type": "address"
        },
        {
          "indexed": false,
          "name": "amountToSplit",
          "type": "uint256"
        },
        {
          "indexed": true,
          "name": "splitToAccount1",
          "type": "address"
        },
        {
          "indexed": true,
          "name": "splitToAccount2",
          "type": "address"
        }
      ],
      "name": "LogSplit",
      "type": "event",
      "signature": "0x294561be4d5d042bd5fa2e7c80dd42bb018d7d15c06d95b542a150419ff80560"
    },
    {
      "anonymous": false,
      "inputs": [
        {
          "indexed": true,
          "name": "whoWithdrew",
          "type": "address"
        },
        {
          "indexed": false,
          "name": "amountWithdrawn",
          "type": "uint256"
        }
      ],
      "name": "LogWithdrawal",
      "type": "event",
      "signature": "0xb4214c8c54fc7442f36d3682f59aebaf09358a4431835b30efb29d52cf9e1e91"
    },
    {
      "anonymous": false,
      "inputs": [
        {
          "indexed": true,
          "name": "previousOwner",
          "type": "address"
        },
        {
          "indexed": true,
          "name": "newOwner",
          "type": "address"
        }
      ],
      "name": "OwnershipTransferred",
      "type": "event",
      "signature": "0x8be0079c531659141344cd1fd0a4f28419497f9722a3daafe3b4186f6b6457e0"
    },
    {
      "constant": false,
      "inputs": [
        {
          "name": "splitToAccount1",
          "type": "address"
        },
        {
          "name": "splitToAccount2",
          "type": "address"
        }
      ],
      "name": "splitBetween",
      "outputs": [],
      "payable": true,
      "stateMutability": "payable",
      "type": "function",
      "signature": "0xf23ca928"
    },
    {
      "constant": false,
      "inputs": [],
      "name": "withdraw",
      "outputs": [],
      "payable": false,
      "stateMutability": "nonpayable",
      "type": "function",
      "signature": "0x3ccfd60b"
    }
  ],
  "bytecode": "0x6080604052336000806101000a81548173ffffffffffffffffffffffffffffffffffffffff021916908373ffffffffffffffffffffffffffffffffffffffff1602179055506000809054906101000a900473ffffffffffffffffffffffffffffffffffffffff1673ffffffffffffffffffffffffffffffffffffffff16600073ffffffffffffffffffffffffffffffffffffffff167f8be0079c531659141344cd1fd0a4f28419497f9722a3daafe3b4186f6b6457e060405160405180910390a36109c5806100cf6000396000f3fe60806040526004361061008d576000357c0100000000000000000000000000000000000000000000000000000000900480638da5cb5b1161006b5780638da5cb5b146101255780638f32d59b1461017c578063f23ca928146101ab578063f2fde38b1461020f5761008d565b806327e235e3146100925780633ccfd60b146100f7578063715018a61461010e575b600080fd5b34801561009e57600080fd5b506100e1600480360360208110156100b557600080fd5b81019080803573ffffffffffffffffffffffffffffffffffffffff169060200190929190505050610260565b6040518082815260200191505060405180910390f35b34801561010357600080fd5b5061010c610278565b005b34801561011a57600080fd5b5061012361040f565b005b34801561013157600080fd5b5061013a6104df565b604051808273ffffffffffffffffffffffffffffffffffffffff1673ffffffffffffffffffffffffffffffffffffffff16815260200191505060405180910390f35b34801561018857600080fd5b50610191610508565b604051808215151515815260200191505060405180910390f35b61020d600480360360408110156101c157600080fd5b81019080803573ffffffffffffffffffffffffffffffffffffffff169060200190929190803573ffffffffffffffffffffffffffffffffffffffff16906020019092919050505061055f565b005b34801561021b57600080fd5b5061025e6004803603602081101561023257600080fd5b81019080803573ffffffffffffffffffffffffffffffffffffffff169060200190929190505050610865565b005b60016020528060005260406000206000915090505481565b6000600160003373ffffffffffffffffffffffffffffffffffffffff1673ffffffffffffffffffffffffffffffffffffffff16815260200190815260200160002054905060008111610332576040517f08c379a000000000000000000000000000000000000000000000000000000000815260040180806020018281038252601e8152602001807f4e6f7468696e6720617661696c61626c6520746f2077697468647261772e000081525060200191505060405180910390fd5b6000600160003373ffffffffffffffffffffffffffffffffffffffff1673ffffffffffffffffffffffffffffffffffffffff168152602001908152602001600020819055503373ffffffffffffffffffffffffffffffffffffffff166108fc829081150290604051600060405180830381858888f193505050501580156103bd573d6000803e3d6000fd5b503373ffffffffffffffffffffffffffffffffffffffff167fb4214c8c54fc7442f36d3682f59aebaf09358a4431835b30efb29d52cf9e1e91826040518082815260200191505060405180910390a250565b610417610508565b61042057600080fd5b600073ffffffffffffffffffffffffffffffffffffffff166000809054906101000a900473ffffffffffffffffffffffffffffffffffffffff1673ffffffffffffffffffffffffffffffffffffffff167f8be0079c531659141344cd1fd0a4f28419497f9722a3daafe3b4186f6b6457e060405160405180910390a360008060006101000a81548173ffffffffffffffffffffffffffffffffffffffff021916908373ffffffffffffffffffffffffffffffffffffffff160217905550565b60008060009054906101000a900473ffffffffffffffffffffffffffffffffffffffff16905090565b60008060009054906101000a900473ffffffffffffffffffffffffffffffffffffffff1673ffffffffffffffffffffffffffffffffffffffff163373ffffffffffffffffffffffffffffffffffffffff1614905090565b600073ffffffffffffffffffffffffffffffffffffffff168273ffffffffffffffffffffffffffffffffffffffff16141561059957600080fd5b600073ffffffffffffffffffffffffffffffffffffffff168173ffffffffffffffffffffffffffffffffffffffff1614156105d357600080fd5b8073ffffffffffffffffffffffffffffffffffffffff168273ffffffffffffffffffffffffffffffffffffffff16141561060c57600080fd5b60006002348161061857fe5b04905061066d81600160008673ffffffffffffffffffffffffffffffffffffffff1673ffffffffffffffffffffffffffffffffffffffff1681526020019081526020016000205461088290919063ffffffff16565b600160008573ffffffffffffffffffffffffffffffffffffffff1673ffffffffffffffffffffffffffffffffffffffff1681526020019081526020016000208190555061070281600160008573ffffffffffffffffffffffffffffffffffffffff1673ffffffffffffffffffffffffffffffffffffffff1681526020019081526020016000205461088290919063ffffffff16565b600160008473ffffffffffffffffffffffffffffffffffffffff1673ffffffffffffffffffffffffffffffffffffffff168152602001908152602001600020819055506107a16002348161075257fe5b06600160003373ffffffffffffffffffffffffffffffffffffffff1673ffffffffffffffffffffffffffffffffffffffff1681526020019081526020016000205461088290919063ffffffff16565b600160003373ffffffffffffffffffffffffffffffffffffffff1673ffffffffffffffffffffffffffffffffffffffff168152602001908152602001600020819055508173ffffffffffffffffffffffffffffffffffffffff168373ffffffffffffffffffffffffffffffffffffffff163373ffffffffffffffffffffffffffffffffffffffff167f294561be4d5d042bd5fa2e7c80dd42bb018d7d15c06d95b542a150419ff80560346040518082815260200191505060405180910390a4505050565b61086d610508565b61087657600080fd5b61087f816108a1565b50565b60008082840190508381101561089757600080fd5b8091505092915050565b600073ffffffffffffffffffffffffffffffffffffffff168173ffffffffffffffffffffffffffffffffffffffff1614156108db57600080fd5b8073ffffffffffffffffffffffffffffffffffffffff166000809054906101000a900473ffffffffffffffffffffffffffffffffffffffff1673ffffffffffffffffffffffffffffffffffffffff167f8be0079c531659141344cd1fd0a4f28419497f9722a3daafe3b4186f6b6457e060405160405180910390a3806000806101000a81548173ffffffffffffffffffffffffffffffffffffffff021916908373ffffffffffffffffffffffffffffffffffffffff1602179055505056fea165627a7a72305820ce5c9a203e2e879339034873e8f659604319b8f9b01199f1fde7cd1afe0670e00029",
  "source": "pragma solidity 0.5.7;\n\nimport \"./SafeMath.sol\";\nimport \"./Ownable.sol\";\n\ncontract Splitter is Ownable{\n\n    using SafeMath for uint;\n\n    mapping (address => uint) public balances;\n    \n    event LogSplit(address indexed whoDidSplit, uint amountToSplit, address indexed splitToAccount1, address indexed splitToAccount2);\n    event LogWithdrawal(address indexed whoWithdrew, uint amountWithdrawn);\n    \n    function splitBetween(address splitToAccount1, address splitToAccount2) public payable {\n\n        // Neither provided account should be unset (or 0x).\n        require( splitToAccount1 != address(0) );\n        require( splitToAccount2 != address(0) );\n\n        // Not strictly necessary, but provided accounts should probably be different addresses.\n        require( splitToAccount1 != splitToAccount2 );\n\n        // amount to be distributed to each of the supplied accounts\n        uint half = msg.value / 2;\n        \n        // add half of the sent amount to each provided account\n        balances[splitToAccount1] = balances[splitToAccount1].add(half);\n        balances[splitToAccount2] = balances[splitToAccount2].add(half);\n\n        // if there is a remainder (an odd wei), add it to the account of the sender.\n        balances[msg.sender] = balances[msg.sender].add(msg.value % 2);\n        \n        emit LogSplit(msg.sender, msg.value, splitToAccount1, splitToAccount2);\n    }\n\n    function withdraw() public{\n\n        uint balance = balances[msg.sender];\n\n        require( balance > 0, \"Nothing available to withdraw.\" );\n\n        // optimistically mark this as transferred, if it fails this will be reverted anyway\n        balances[msg.sender] = 0;\n        msg.sender.transfer(balance);\n\n        emit LogWithdrawal(msg.sender, balance);\n    }\n}",
  "sourcePath": "/home/andrew/b9labs/dapps/splitter/contracts/Splitter.sol",
  "compiler": {
    "name": "solc",
    "version": "0.5.7+commit.6da8b019.Emscripten.clang"
  },
  "schemaVersion": "3.0.3",
  "updatedAt": "2019-04-24T02:24:52.647Z",
  "devdoc": {
    "methods": {
      "isOwner()": {
        "return": "true if `msg.sender` is the owner of the contract."
      },
      "owner()": {
        "return": "the address of the owner."
      },
      "renounceOwnership()": {
        "details": "Allows the current owner to relinquish control of the contract. It will not be possible to call the functions with the `onlyOwner` modifier anymore."
      },
      "transferOwnership(address)": {
        "details": "Allows the current owner to transfer control of the contract to a newOwner.",
        "params": {
          "newOwner": "The address to transfer ownership to."
        }
      }
    }
  },
  "userdoc": {
    "methods": {
      "renounceOwnership()": {
        "notice": "Renouncing ownership will leave the contract without an owner, thereby removing any functionality that is only available to the owner."
      }
    }
  }
}