{
  "contractName": "Splitter",
  "abi": [
    {
      "inputs": [
        {
          "name": "setAlice",
          "type": "address"
        },
        {
          "name": "setBob",
          "type": "address"
        },
        {
          "name": "setCarol",
          "type": "address"
        }
      ],
      "payable": false,
      "stateMutability": "nonpayable",
      "type": "constructor"
    },
    {
      "anonymous": false,
      "inputs": [
        {
          "indexed": true,
          "name": "who",
          "type": "address"
        },
        {
          "indexed": false,
          "name": "amountToSplit",
          "type": "uint256"
        },
        {
          "indexed": false,
          "name": "splitPortion",
          "type": "uint256"
        }
      ],
      "name": "LogSplit",
      "type": "event"
    },
    {
      "constant": false,
      "inputs": [],
      "name": "splitBetween",
      "outputs": [],
      "payable": true,
      "stateMutability": "payable",
      "type": "function"
    }
  ],
  "bytecode": "0x608060405234801561001057600080fd5b506040516060806104068339810180604052606081101561003057600080fd5b810190808051906020019092919080519060200190929190805190602001909291905050508173ffffffffffffffffffffffffffffffffffffffff168373ffffffffffffffffffffffffffffffffffffffff16141580156100bd57508073ffffffffffffffffffffffffffffffffffffffff168373ffffffffffffffffffffffffffffffffffffffff1614155b80156100f557508073ffffffffffffffffffffffffffffffffffffffff168273ffffffffffffffffffffffffffffffffffffffff1614155b6100fe57600080fd5b826000806101000a81548173ffffffffffffffffffffffffffffffffffffffff021916908373ffffffffffffffffffffffffffffffffffffffff16021790555081600160006101000a81548173ffffffffffffffffffffffffffffffffffffffff021916908373ffffffffffffffffffffffffffffffffffffffff16021790555080600260006101000a81548173ffffffffffffffffffffffffffffffffffffffff021916908373ffffffffffffffffffffffffffffffffffffffff160217905550505050610234806101d26000396000f3fe60806040526004361061003b576000357c0100000000000000000000000000000000000000000000000000000000900480639f9329df14610040575b600080fd5b61004861004a565b005b6000809054906101000a900473ffffffffffffffffffffffffffffffffffffffff1673ffffffffffffffffffffffffffffffffffffffff163373ffffffffffffffffffffffffffffffffffffffff16146100a357600080fd5b6000600234816100af57fe5b049050600081116100bc57fe5b600160009054906101000a900473ffffffffffffffffffffffffffffffffffffffff1673ffffffffffffffffffffffffffffffffffffffff166108fc829081150290604051600060405180830381858888f19350505050158015610124573d6000803e3d6000fd5b50600260009054906101000a900473ffffffffffffffffffffffffffffffffffffffff1673ffffffffffffffffffffffffffffffffffffffff166108fc829081150290604051600060405180830381858888f1935050505015801561018d573d6000803e3d6000fd5b506000809054906101000a900473ffffffffffffffffffffffffffffffffffffffff1673ffffffffffffffffffffffffffffffffffffffff167fca94821567049a489e9eeea3c07e4145620d0ae2d92700ac2b1fc4fcf7aea8d73483604051808381526020018281526020019250505060405180910390a25056fea165627a7a72305820cc7895bf8ab908c1dab50a2b01fd4e4896b71b522990879c8a0ece20733c59430029",
  "source": "pragma solidity 0.5.7;\n\ncontract Splitter{\n    \n    address alice;\n    address payable bob;\n    address payable carol;\n    \n    event LogSplit(address indexed who, uint amountToSplit, uint splitPortion);\n    \n    constructor(address setAlice, address payable setBob, address payable setCarol) public {\n        // not strictly necessary, but Alice, Bob, and Carol should probably be different entities.\n        require((setAlice != setBob) && (setAlice != setCarol) && (setBob != setCarol));\n        \n        alice = setAlice;\n        bob = setBob;\n        carol = setCarol;\n    }\n    \n    function splitBetween() public payable {\n        require(msg.sender == alice);\n        \n        uint splitPortion = msg.value / 2;\n        assert(splitPortion > 0);\n        \n        bob.transfer(splitPortion);\n        carol.transfer(splitPortion);\n        \n        emit LogSplit(alice, msg.value, splitPortion);\n    }\n}",
  "sourcePath": "/home/andrew/b9labs/dapps/splitter/contracts/Splitter.sol",
  "compiler": {
    "name": "solc",
    "version": "0.5.7+commit.6da8b019.Emscripten.clang"
  },
  "schemaVersion": "3.0.3",
  "updatedAt": "2019-04-12T03:40:09.233Z",
  "devdoc": {
    "methods": {}
  },
  "userdoc": {
    "methods": {}
  }
}