{
  "contractName": "Splitter",
  "abi": [
    {
      "constant": true,
      "inputs": [
        {
          "name": "",
          "type": "address"
        }
      ],
      "name": "balances",
      "outputs": [
        {
          "name": "",
          "type": "uint256"
        }
      ],
      "payable": false,
      "stateMutability": "view",
      "type": "function"
    },
    {
      "inputs": [],
      "payable": false,
      "stateMutability": "nonpayable",
      "type": "constructor"
    },
    {
      "anonymous": false,
      "inputs": [
        {
          "indexed": true,
          "name": "whoIsOwner",
          "type": "address"
        }
      ],
      "name": "LogSetOwner",
      "type": "event"
    },
    {
      "anonymous": false,
      "inputs": [
        {
          "indexed": true,
          "name": "whoDidSplit",
          "type": "address"
        },
        {
          "indexed": true,
          "name": "splitToAccount1",
          "type": "address"
        },
        {
          "indexed": true,
          "name": "splitToAccount2",
          "type": "address"
        },
        {
          "indexed": false,
          "name": "amountToSplit",
          "type": "uint256"
        },
        {
          "indexed": false,
          "name": "splitPortion",
          "type": "uint256"
        }
      ],
      "name": "LogSplit",
      "type": "event"
    },
    {
      "anonymous": false,
      "inputs": [
        {
          "indexed": true,
          "name": "whoWithdrew",
          "type": "address"
        },
        {
          "indexed": false,
          "name": "amountWithdrawn",
          "type": "uint256"
        }
      ],
      "name": "LogWithdrawal",
      "type": "event"
    },
    {
      "constant": false,
      "inputs": [
        {
          "name": "splitToAccount1",
          "type": "address"
        },
        {
          "name": "splitToAccount2",
          "type": "address"
        }
      ],
      "name": "splitBetween",
      "outputs": [],
      "payable": true,
      "stateMutability": "payable",
      "type": "function"
    },
    {
      "constant": false,
      "inputs": [],
      "name": "withdraw",
      "outputs": [],
      "payable": false,
      "stateMutability": "nonpayable",
      "type": "function"
    }
  ],
  "bytecode": "0x6080604052600160005534801561001557600080fd5b5033600260006101000a81548173ffffffffffffffffffffffffffffffffffffffff021916908373ffffffffffffffffffffffffffffffffffffffff160217905550600260009054906101000a900473ffffffffffffffffffffffffffffffffffffffff1673ffffffffffffffffffffffffffffffffffffffff167fce241d7ca1f669fee44b6fc00b8eba2df3bb514eed0f6f668f8f89096e81ed9460405160405180910390a2610707806100cb6000396000f3fe608060405260043610610051576000357c01000000000000000000000000000000000000000000000000000000009004806327e235e3146100565780633ccfd60b146100bb578063f23ca928146100d2575b600080fd5b34801561006257600080fd5b506100a56004803603602081101561007957600080fd5b81019080803573ffffffffffffffffffffffffffffffffffffffff169060200190929190505050610136565b6040518082815260200191505060405180910390f35b3480156100c757600080fd5b506100d061014e565b005b610134600480360360408110156100e857600080fd5b81019080803573ffffffffffffffffffffffffffffffffffffffff169060200190929190803573ffffffffffffffffffffffffffffffffffffffff1690602001909291905050506103a2565b005b60016020528060005260406000206000915090505481565b6000600160003373ffffffffffffffffffffffffffffffffffffffff1673ffffffffffffffffffffffffffffffffffffffff1681526020019081526020016000205411610203576040517f08c379a000000000000000000000000000000000000000000000000000000000815260040180806020018281038252601e8152602001807f4e6f7468696e6720617661696c61626c6520746f2077697468647261772e000081525060200191505060405180910390fd5b600061025c600054600a0a600160003373ffffffffffffffffffffffffffffffffffffffff1673ffffffffffffffffffffffffffffffffffffffff1681526020019081526020016000205461063c90919063ffffffff16565b90506102c7610279600054600a0a8361066290919063ffffffff16565b600160003373ffffffffffffffffffffffffffffffffffffffff1673ffffffffffffffffffffffffffffffffffffffff1681526020019081526020016000205461069c90919063ffffffff16565b600160003373ffffffffffffffffffffffffffffffffffffffff1673ffffffffffffffffffffffffffffffffffffffff168152602001908152602001600020819055503373ffffffffffffffffffffffffffffffffffffffff166108fc829081150290604051600060405180830381858888f19350505050158015610350573d6000803e3d6000fd5b503373ffffffffffffffffffffffffffffffffffffffff167fb4214c8c54fc7442f36d3682f59aebaf09358a4431835b30efb29d52cf9e1e91826040518082815260200191505060405180910390a250565b600073ffffffffffffffffffffffffffffffffffffffff168273ffffffffffffffffffffffffffffffffffffffff1614156103dc57600080fd5b600073ffffffffffffffffffffffffffffffffffffffff168173ffffffffffffffffffffffffffffffffffffffff16141561041657600080fd5b8073ffffffffffffffffffffffffffffffffffffffff168273ffffffffffffffffffffffffffffffffffffffff16141561044f57600080fd5b6000610469600054600a0a3461066290919063ffffffff16565b90506104c76002828161047857fe5b04600160008673ffffffffffffffffffffffffffffffffffffffff1673ffffffffffffffffffffffffffffffffffffffff168152602001908152602001600020546106bc90919063ffffffff16565b600160008573ffffffffffffffffffffffffffffffffffffffff1673ffffffffffffffffffffffffffffffffffffffff168152602001908152602001600020819055506105666002828161051757fe5b04600160008573ffffffffffffffffffffffffffffffffffffffff1673ffffffffffffffffffffffffffffffffffffffff168152602001908152602001600020546106bc90919063ffffffff16565b600160008473ffffffffffffffffffffffffffffffffffffffff1673ffffffffffffffffffffffffffffffffffffffff168152602001908152602001600020819055508173ffffffffffffffffffffffffffffffffffffffff168373ffffffffffffffffffffffffffffffffffffffff163373ffffffffffffffffffffffffffffffffffffffff167fdf977ab3eb0f0f54e3e1537715c34722a263893bebe7df51f229a8829f9c1521346002868161061a57fe5b04604051808381526020018281526020019250505060405180910390a4505050565b600080821161064a57600080fd5b600082848161065557fe5b0490508091505092915050565b6000808314156106755760009050610696565b600082840290508284828161068657fe5b041461069157600080fd5b809150505b92915050565b6000828211156106ab57600080fd5b600082840390508091505092915050565b6000808284019050838110156106d157600080fd5b809150509291505056fea165627a7a7230582067d281b895062625b5eafa6e3671bd9af58681771f19954a450cdf0c398934ad0029",
  "source": "pragma solidity 0.5.7;\n\nimport \"./SafeMath.sol\";\n\ncontract Splitter{\n\n    using SafeMath for uint;\n\n    // balances will be stored as 28 digit values\n    // up to 27 digits for ether and 15digit for parts of wei\n    uint numDecimals = 1;\n\n    mapping (address => uint) public balances;\n    \n    address payable owner;\n    \n    event LogSetOwner(address indexed whoIsOwner);\n    event LogSplit(address indexed whoDidSplit, address indexed splitToAccount1, address indexed splitToAccount2, uint amountToSplit, uint splitPortion);\n    event LogWithdrawal(address indexed whoWithdrew, uint amountWithdrawn);\n\n    constructor() public {\n\n        // save address of contract deployer for later, just in case\n        owner = msg.sender;\n\n        emit LogSetOwner(owner);\n    }\n    \n    function splitBetween(address splitToAccount1, address splitToAccount2) public payable {\n\n        // Neither provided account should be unset (or 0x).\n        require( splitToAccount1 != address(0) );\n        require( splitToAccount2 != address(0) );\n\n        // Not strictly necessary, but provided accounts should probably be different addresses.\n        require( splitToAccount1 != splitToAccount2 );\n        \n        uint amountToSplit = msg.value.mul(10 ** numDecimals);\n        \n        balances[splitToAccount1] = balances[splitToAccount1].add(amountToSplit / 2);\n        balances[splitToAccount2] = balances[splitToAccount2].add(amountToSplit / 2);\n        \n        emit LogSplit(msg.sender, splitToAccount1, splitToAccount2, msg.value, amountToSplit / 2);\n    }\n\n    function withdraw() public{\n\n        require( balances[msg.sender] > 0, \"Nothing available to withdraw.\" );\n\n        uint withdrawable = balances[msg.sender].div(10 ** numDecimals);\n        \n        // optimistically mark this as transferred, if it fails this will be reverted anyway\n        balances[msg.sender] = balances[msg.sender].sub(withdrawable.mul(10 ** numDecimals));\n        msg.sender.transfer(withdrawable);\n\n        emit LogWithdrawal(msg.sender, withdrawable);\n    }\n}",
  "sourcePath": "/home/andrew/b9labs/dapps/splitter/contracts/Splitter.sol",
  "compiler": {
    "name": "solc",
    "version": "0.5.7+commit.6da8b019.Emscripten.clang"
  },
  "schemaVersion": "3.0.3",
  "updatedAt": "2019-04-23T03:12:24.402Z",
  "devdoc": {
    "methods": {}
  },
  "userdoc": {
    "methods": {}
  }
}